:020000040000FA
:060000000A128A11F32F21
:10000A00F800F401F5017008F200F3017208F60035
:10001A007308F700781C1228132819287608F407A1
:10002A000318F50A7708F50701300310F60DF70DE6
:10003A00FF3E031D1A280310F80C7808031D262812
:10004A0027280F287508F1007408F000080003102B
:10005A0083120313560D570DD8005808DE005E08A8
:10006A00031D3828392842280030D7000030D6002E
:10007A000030D5000030D400A7285408D80055080D
:10008A00D9005608DA005708DB001F300310DB0CD2
:10009A00DA0CD90CD80CFF3E031D4B285808DC009B
:1000AA005C08DD00D617FF30D405FF30D505FF30D8
:1000BA00D6050030D7059630DE02DE1F6528662891
:1000CA0080285E08803A973E03186C286D286E28AF
:1000DA00392801300310D70CD60CD50CD40CFF3EAE
:1000EA00031D6F280130D8005808DE07031D7E283B
:1000FA007F286E28972820305E02031C85288628D0
:10010A00922839280130D8000310D40DD50DD60D08
:10011A00D70DD80B89280130DE025E08031D962808
:10012A00972887285D0803199B289C28A728D409A3
:10013A00D509D609D709D40A0319D50A0319D60A43
:10014A000319D70A0800F80078080319AD28AE2861
:10015A00C228F31FB128B228C2287009FA0071090F
:10016A00FB007209FC007309FD00FA0A0319FB0A75
:10017A000319FC0A0319FD0ACA287308FD0072084C
:10018A00FC007108FB007008FA007308720471041D
:10019A007004031DD128D228DB280030F300003078
:1001AA00F2000030F1000030F00061299630F400CE
:1001BA007408F900ED280130F4007408F9070130D9
:1001CA000310FD0CFC0CFB0CFA0CFF3E031DE5288A
:1001DA00FE307D05031DF228F328E0280F2901309F
:1001EA00F4007408F9070130FA07003003180130E7
:1001FA00FB07003003180130FC07003003180130F8
:10020A00FD0701300310FD0CFC0CFB0CFA0CFF3E41
:10021A00031D0729FF307D05031D14291529F4281C
:10022A0021290130F9020130F4000310FA0DFB0D07
:10023A00FC0DFD0DF40B1A29FC1B242925292B2959
:10024A000230790203182A292B29162979182E290E
:10025A002F293729FF30FA05FF30FB057F30FC05CF
:10026A00FF30FD050310F90C7908F400F501F601D9
:10027A00F70118300310F40DF50DF60DF70DFF3EDA
:10028A00031D3F297408FA047508FB047608FC0468
:10029A007708FD0478080319532954295929F31FAB
:1002AA00572958295929FD177D08F3007C08F200BF
:1002BA007B08F1007A08F00008008316031388010E
:1002CA00880186100615051009100A128A15DD26FE
:1002DA000A128A118312031305140914F401F40A89
:1002EA0001300A128A1530260A128A110F300A12B0
:1002FA008A150B260A128A11F401F40A02300A122C
:10030A008A1530260A128A1125300A128A150B26F6
:10031A000A128A11063083120313E1001330E00037
:10032A00AD30DF00DF0B9729E00B9729E10B972906
:10033A000A128A15C2250A128A11831203138F011F
:10034A008E018614023083120313DF00DF0BAB2900
:10035A000000831203138610061DB429B529B1299A
:10036A0010140619B929BA29B62910100F08E8007D
:10037A000E08E7006708F0006808F1000030F11B7A
:10038A00FF30F200F30001300A128A11A8200A1283
:10039A008A11730883120313A7007208A600710852
:1003AA00A5007008A4003C30A300DE30A200D230C1
:1003BA00A1008930A0000A128A1192240A128A1115
:1003CA00831203132308C1002208C0002108BF00BA
:1003DA002008BE004030BD000030BC000030BB0029
:1003EA000030BA000A128A11B5220A128A1183123F
:1003FA0003133D08D7003C08D6003B08D5003A084D
:10040A00D4000A128A112C200A128A1183120313A9
:10041A005508E3005408E2006308803AFF00803080
:10042A007F02031D1A2A0A30620203181D2A1E2A95
:10043A00232A8312031305140914272A8312031388
:10044A00051009100A30F9000030FA006430F00093
:10045A000030F1006308F3006208F2000A128A15FC
:10046A0099270A128A117108FC007008FB000A1207
:10047A008A1582260A128A11790883120313DF0069
:10048A005F08E6000A30F9000030FA000A30F0008E
:10049A000030F1006308F3006208F2000A128A15BC
:1004AA0099270A128A117108FC007008FB000A12C7
:1004BA008A1582260A128A11790883120313DF0029
:1004CA005F08E5000A30F9000030FA006308FC0012
:1004DA006208FB000A128A1582260A128A11790812
:1004EA0083120313DF005F08E400F401F40A013009
:1004FA000A128A1530260A128A1101300A128A153E
:10050A000B260A128A11F401F40A02300A128A1519
:10051A0030260A128A111B300A128A150B260A1271
:10052A008A11831203136608303E0A128A153A2783
:10053A000A128A11831203136508303E0A128A15B9
:10054A003A270A128A11831203136408303E0A12E8
:10055A008A153A270A128A11A2290A128A11002830
:10056A008312031341088039C2004208CB004108B4
:10057A00C2004207C3004308D200C01FC52AC62AC8
:10058A00C72A521452080319CB2ACC2ADC2A520A47
:10059A00031DD02AD12AD92A0030C1000030C00058
:1005AA000030BF000030BE00C017C101E42A00308D
:1005BA00C1000030C0000030BF000030BE003D085E
:1005CA008039C2004208CB063D08C2004207C30078
:1005DA004308D300BC1FF22AF32AF42A53145308FF
:1005EA000319F82AF92A092B530A031DFD2AFE2AA0
:1005FA00062B0030BD000030BC000030BB000030CC
:10060A00BA00BC17BD01112B0030BD000030BC0080
:10061A000030BB000030BA003D083C043B043A04F9
:10062A00031D182B192B322B0030C1000030C000DB
:10063A000030BF000030BE008030C0047F30C104EB
:10064A004B08C2004208C1044108BD004008BC0072
:10065A003F08BB003E08BA00912C5208031D362BF6
:10066A00372B402B0030BD000030BC000030BB00EF
:10067A000030BA00912C5208C200C3014308C500D9
:10068A0053084202C400031CC50344087F3ECC0041
:10069A0045080318013E003ECD004108CA00400843
:1006AA00C9003F08C8003E08C7000030C10000303A
:1006BA00C0000030BF000030BE000030D100003062
:1006CA00D0000030CF000030CE00D301B62B530843
:1006DA000319702B712B912B0130C2000310C70D27
:1006EA00C80DC90DCA0DC20B732B0130C20003100D
:1006FA00BE0DBF0DC00DC10DC20B7C2BD11F862BA9
:10070A00872B882B3E140130C2000310CE0DCF0D6B
:10071A00D00DD10DC20B8A2B3D084A02031D9F2B17
:10072A003C084902031D9F2B3B084802031D9F2BCF
:10073A003A084702031CA22BA32BB22B51173A08E3
:10074A00C7023B08031C3B0FC8023C08031C3C0FB2
:10075A00C9023D08031C3D0FCA020130C20042080B
:10076A00D3071A305302031CBB2BBC2B6C2B4A0831
:10077A004904480447040319C32BC42BE32B4E1422
:10078A00E32B0130C2000310BE0DBF0DC00DC10D19
:10079A00C20BC82BD11FD22BD32BD42B3E14013022
:1007AA00C2000310CE0DCF0DD00DD10DC20BD62B2A
:1007BA00FF30CC070318CD0AFF30CD07C01FE62B48
:1007CA00E72BC62BD301D11FEB2BEC2B082CFF30C8
:1007DA004E05C200FF304F05C300FF305005C4006C
:1007EA007F305105C50045084404430442040319F7
:1007FA00FF2B002C032CD301D30A082C3E1C062CF9
:10080A00072C082C002C530803190C2C0D2C3E2CF9
:10081A000130BE07003003180130BF07003003184B
:10082A000130C007003003180130C107411C1E2CDB
:10083A001F2C3E2C3E08C2003F08C3004008C400DB
:10084A004108C5000130C600450DC50CC40CC30CD7
:10085A00C20CC60B292C4508C1004408C000430835
:10086A00BF004208BE000130CC070318CD0A003091
:10087A00CD074D08803AFF0080307F02031D472CC8
:10088A00FF304C02031C4A2C4B2C592CFF3083128C
:10089A000313CC000030CD000030C1000030C0008E
:1008AA000030BF000030BE00831203134D08803AA7
:1008BA00FF0080307F02031D642C01304C020318B4
:1008CA00672C682C752C83120313CC01CD010030E0
:1008DA00C1000030C0000030BF000030BE00CB01B4
:1008EA00831203134C08C2004208D200521C7E2C09
:1008FA007F2C812CC017852C7F30C2004208C0058E
:10090A005208C2000310420CC3004308C1004B083E
:10091A00C2004208C104292B0800831203132308CA
:10092A008039A8002808AD002308A8002807A900D4
:10093A002908B300A21FA22CA32CA42C3314330819
:10094A000319A82CA92CB82C330A031DAD2CAE2CE4
:10095A00B62C0030A3000030A2000030A100003005
:10096A00A000A217C02C0030A3000030A200003063
:10097A00A1000030A00027088039A8002808AD0689
:10098A002708A8002807A9002908B200A61FCE2C0C
:10099A00CF2CD02C321432080319D42CD52CE42CA9
:1009AA00320A031DD92CDA2CE22C0030A7000030C1
:1009BA00A6000030A5000030A400A617EC2C0030D9
:1009CA00A7000030A6000030A5000030A4003208BD
:1009DA000319F02CF12CF62C3308031DF52CF62CF8
:1009EA00FF2C0030A3000030A2000030A10000302C
:1009FA00A000F22F2008A8002808F00026080A12F2
:100A0A008A1105200A128A11710883120313B90088
:100A1A007008B8003808A800A901AA01AB012B0880
:100A2A00B1002A08B0002908AF002808AE0039082A
:100A3A00A800A901AA01AB012B08B7002A08B60031
:100A4A002908B5002808B4002108A8002808F000E1
:100A5A0025080A128A1105200A128A1171088312BE
:100A6A000313B9007008B8003808A800A901AA0140
:100A7A00AB012808AE07290803110318013E031920
:100A8A00472DAF072A0803110318013E03194E2DFB
:100A9A00B0072B0803110318013E0319552DB1079E
:100AAA003908A800A901AA01AB012808B407290836
:100ABA0003110318013E0319632DB5072A08031110
:100ACA000318013E03196A2DB6072B0803110318F0
:100ADA00013E0319712DB7072208A8002808F00063
:100AEA0024080A128A1105200A128A11710883122F
:100AFA000313B9007008B8003808A800A901AA01B0
:100B0A00AB012808AE07290803110318013E03198F
:100B1A008F2DAF072A0803110318013E0319962DDA
:100B2A00B0072B0803110318013E03199D2DB107C5
:100B3A003908A800A901AA01AB012808B4072908A5
:100B4A0003110318013E0319AB2DB5072A08031137
:100B5A000318013E0319B22DB6072B080311031817
:100B6A00013E0319B92DB7070830A8000310AE0DCE
:100B7A00AF0DB00DB10DA80BBB2D2108A800280898
:100B8A00F00024080A128A1105200A128A11710833
:100B9A0083120313B9007008B8003808A80039088E
:100BAA00A900AA01AB012808AE07290803110318F6
:100BBA00013E0319E12DAF072A0803110318013E6C
:100BCA000319E82DB0072B0803110318013E031976
:100BDA00EF2DB1072008A8002808F00025080A12FE
:100BEA008A1105200A128A11710883120313B900A7
:100BFA007008B8003808A8003908A900AA01AB0192
:100C0A002808AE07290803110318013E03190E2EFE
:100C1A00AF072A0803110318013E0319152EB0075E
:100C2A002B0803110318013E03191C2EB1070830C3
:100C3A00A8000310AE0DAF0DB00DB10DA80B1E2EFE
:100C4A002008A8002808F00024080A128A110520A2
:100C5A000A128A11710883120313B9007008B800C6
:100C6A003808A8003908A900AA01AB012808AE076C
:100C7A00290803110318013E0319442EAF072A0855
:100C8A0003110318013E03194B2EB0072B08031159
:100C9A000318013E0319522EB1072108A80028089B
:100CAA00F00026080A128A1105200A128A11710810
:100CBA0083120313B9007008B8003808A80039086D
:100CCA00A900AA01AB012808B407290803110318CF
:100CDA00013E0319712EB5072A0803110318013EB4
:100CEA000319782EB6072B0803110318013E0319BE
:100CFA007F2EB7072208A8002808F00025080A1244
:100D0A008A1105200A128A11710883120313B90085
:100D1A007008B8003808A8003908A900AA01AB0170
:100D2A002808B407290803110318013E03199E2E47
:100D3A00B5072A0803110318013E0319A52EB607A1
:100D4A002B0803110318013E0319AC2EB70722081A
:100D5A00A8002808F00026080A128A1105200A129B
:100D6A008A11710883120313B9007008B800380891
:100D7A00A8003908A900AA01AB0108300310A80D80
:100D8A00A90DAA0DAB0DFF3E031DC32E2808B407FB
:100D9A00290803110318013E0319D42EB5072A089E
:100DAA0003110318013E0319DB2EB6072B080311A2
:100DBA000318013E0319E22EB7072E08A8002F08D0
:100DCA00A9003008AA003108AB0018300310AB0C98
:100DDA00AA0CA90CA80CFF3E031DEB2E2808B40789
:100DEA00290803110318013E0319FC2EB5072A0826
:100DFA0003110318013E0319032FB6072B08031129
:100E0A000318013E03190A2FB7070830A800031078
:100E1A00AE0DAF0DB00DB10DA80B0C2F3308320774
:100E2A00A800A901A90D2808823EB80029080318BC
:100E3A00013EFF3EB9003E2F0130A8000310B40D59
:100E4A00B50DB60DB70DA80B232FB11F2D2F2E2FC1
:100E5A002F2F34140130A8000310AE0DAF0DB00DC2
:100E6A00B10DA80B312FFF30B8070318B90AFF30AC
:100E7A00B907B61F412F422F212FB201B11F462FAA
:100E8A00472F632FFF302E05A800FF302F05A9003A
:100E9A00FF303005AA007F303105AB002B082A0449
:100EAA002904280403195A2F5B2F5E2FB201B20AB4
:100EBA00632F341C612F622F632F5B2F32080319B3
:100ECA00672F682F992F0130B407003003180130BB
:100EDA00B507003003180130B60700300318013097
:100EEA00B707371C792F7A2F992F3408A8003508AD
:100EFA00A9003608AA003708AB000130AC002B0D58
:100F0A00AB0CAA0CA90CA80CAC0B842F2B08B700AD
:100F1A002A08B6002908B5002808B4000130B80725
:100F2A000318B90A0030B9073908803AFF0080303F
:100F3A007F02031DA22FFF303802031CA52FA62F04
:100F4A00B12F7F3083120313B7008030B600003010
:100F5A00B5000030B400E62F831203133908803A33
:100F6A00FF0080307F02031DBC2F013038020318B6
:100F7A00BF2FC02FCC2F003083120313B7000030CD
:100F8A00B6000030B5000030B400AD01E62F831280
:100F9A0003133808A8002808B300FF30B405FF304F
:100FAA00B5057F30B6050030B705331CDD2FDE2FBF
:100FBA00DF2FB6173308A8000310280CA900290848
:100FCA00B7002D08A8002808B7043708A300360878
:100FDA00A2003508A1003408A000080083120313F8
:100FEA00E201E301E401E501E601E701E801830129
:100FFA000A128A11622908308A000408840A8207C0
:10100A000034443465347434653463347434693474
:10101A006E3467342E342E342E342E340034573442
:10102A00613474346534723420344C346534763423
:10103A0065346C3400346434693473347434613420
:10104A006E34633465343A34003449346E3464346B
:0E105A0069346334613474346F34723400349A
:101B840000300A128A15CF250A128A1501300A126A
:101B94008A15CF250A128A150800F300831203134D
:101BA400081173080A128A15E9250A128A15831284
:101BB400031388150630F2003030F100F10BE02DEC
:101BC400F20BE02D00008312031388110800F000CB
:101BD400701CED2DEE2DF22D831203130816F52D36
:101BE400831203130812F01CF82DF92DFB2D88160F
:101BF400FC2D8812701DFF2D002E022E0817032EB7
:101C04000813F01D062E072E092E88170A2E881396
:101C14000800FB00F901FA01222E79087B078400F1
:101C24000A128A1500200A128A150A128A153A27FE
:101C34000A128A150130F9070318FA0A0030FA0764
:101C440079087B0784000A128A1500200A128A1573
:101C5400003A031D2E2E2F2E0F2E0800F7007703B7
:101C6400031D352E362E592E74087F3EF500750857
:101C7400FA007A08F50004300310F50CFF3E031D4A
:101C84003E2E7508F6007608F8007A080F39F5003C
:101C94007508F90078080A128A15CF250A128A15E0
:101CA40079080A128A15CF250A128A15812E023064
:101CB4007706031D5E2E5F2E812E7408BF3EF5004D
:101CC4007508FA007A08F50004300310F50CFF3E9D
:101CD400031D672E7508F6007608F8007A080F3998
:101CE400F5007508F90078080A128A15CF250A123A
:101CF4008A1579080A128A15CF250A128A1508004E
:101D040083120313A101FC1F882E892E902EFB0938
:101D1400FC09FB0A0319FC0AA101A10AFA1F932E6C
:101D2400942E992EF909FA09F90A0319FA0A79087D
:101D34007A0403199E2E9F2ECE2EA001A00AAD2E4A
:101D440001300310F90DFA0DFF3E031DA32E0130DF
:101D5400FD007D08A007FA1FB02EB12EA22E7A082E
:101D64007C02031DB72E79087B02031CBA2EBB2EFE
:101D7400C12E7908FB027A08031CFC03FC02013023
:101D84000310FA0CF90CFF3E031DC22E0130A00211
:101D9400031DCD2ECE2EB12E21080319D22ED32E03
:101DA400D82EFB09FC09FB0A0319FC0A7C08FA007B
:101DB4007B08F900080000300A128A15E9250A1286
:101DC4008A151A30F500F830F400F40BE72EF50B01
:101DD400E72E000003300A128A15CF250A128A154D
:101DE4000730F5007D30F400F40BF62EF50BF62EDB
:101DF40003300A128A15CF250A128A150F30F5000E
:101E04004730F400F40B042FF50B042F092F033093
:101E14000A128A15CF250A128A1502300A128A1567
:101E2400CF250A128A1502300A128A15CF250A1202
:101E34008A1508300A128A15CF250A128A1500302D
:101E44000A128A15CF250A128A150C300A128A152D
:101E5400CF250A128A1500300A128A15CF250A12D4
:101E64008A1506300A128A15CF250A128A15080027
:101E7400F40074080F39F1007108F2007408F039A5
:101E8400F1007108F3008312031308157308F100BD
:101E940004300310F10CFF3E031D4B2F71080A128E
:101EA4008A15E9250A128A1583120313881533301B
:101EB400F5008230F6000000FF30F5070318F60A3B
:101EC400FF30F6077608803AFF0080307F02031D5A
:101ED4006D2F01307502031C702F712F5D2F83123B
:101EE4000313881172080A128A15E9250A128A1541
:101EF4008312031388153330F7008230F800000092
:101F0400FF30F7070318F80AFF30F8077808803A1B
:101F1400FF0080307F02031D912F01307702031CE4
:101F2400942F952F812F8312031388110800F60133
:101F3400F11F9D2F9E2FA52FF009F109F00A031917
:101F4400F10AF601F60AF31FA82FA92FB22FF209FE
:101F5400F309F20A0319F30A0130F4007408F606CF
:101F6400F701F801700871040319B92FBA2FF12F82
:101F7400F501F50AC82F01300310F00DF10DFF3EF5
:101F8400031DBE2F0130F4007408F507F11FCB2F99
:101F9400CC2FBD2F01300310F70DF80DFF3E031DAC
:101FA400CD2F71087302031DD92F70087202031C10
:101FB400DC2FDD2FE42F7008F2027108031CF303F9
:101FC400F302771401300310F10CF00CFF3E031DF3
:101FD400E52F0130F502031DF02FF12FCC2F7608E9
:101FE4000319F52FF62FFB2FF709F809F70A031940
:0C1FF400F80A7808F1007708F0000800F7
:02400E007AFF37
:00000001FF
