:030000000217CA1A
:0C17CA00787FE4F6D8FD75814F021567AA
:101786005761746572204C6576656C203A20002599
:08179600640020202520200042
:10179E00758AF5758CFFD28C308DFDC28CC28D2270
:0817D600758901C28DC28C224D
:0817DE00D2B112179EC2B12224
:101567001217667BFF7A1779867D017F011216BCF9
:101577001217D620B2071217DED28C80F630B203CC
:10158700308DFAC28CE4F53BF53A7539C07538C031
:10159700FFFE7D207C411214507B807A5F791178A1
:1015A700471208008F298E288D278C26AF8CEFAD28
:1015B7008AFCEC1209AB8F258E248D238C22AF2950
:1015C700AE28AD27AC26AB25AA24A923A82212084A
:1015D70000E4FBFAF978401209098F258E248D2340
:1015E7008C227537FF7538177539951209E48E3ACD
:1015F7008F3B7B007A00792A120F087B007A0079EB
:101607002A7D067F021216BC7BFF7A17799812167D
:0B161700EC7F647E0012171F02157AA2
:08171700C291D2927F017E0015
:10171F00E4FDFCC3ED9FEC9E5015E4FBFA0BBB0000
:10172F00010AEB64704A70F50DBD00010C80E422D4
:0E17AE008FA0C290121717C2927F0302171F5E
:0E17BC008FA0D290121717C2927F0302171F40
:1016EC008B398A3A893BE4F53CF53DAB39AA3AA9EA
:1016FC003B853D82853C83120E09FF600D1217BCA1
:0B170C00053DE53D70E5053C80E12255
:1016BC008F348D358B368A378938EF64017008E5A5
:1016CC0035540F4480800CE5346402700AE53554BF
:1016DC000F44C0FF1217AEAB36AA37A9380216EC6E
:101766007F327E0012171F7F381217AE7F0C1217BA
:10177600AE7F011217AE7F061217AE7F800217AE3C
:10080000EC4D6011E8497017ED33EC3304600DE4F2
:10081000FCFFFEFD22E933E8330470F8020A5012AF
:100820000A1B58046009E4CC2481500628500902B0
:100830000A5A284003020A57C0E0EB4A7044B980C4
:1008400006D0E0FB020A46EF4E701CBD8008EBFFAD
:10085000EAFEE9FD80EBE98DF0A4FEE5F00208E98F
:10086000E9CDF9EAFEEBFFEF89F0A4FCE5F0CE89D3
:10087000F0A42EFFE435F0CD89F0A42DFEE435F090
:100880008067EF4E7005BD80D780C3EF8BF0A4ACBE
:10089000F0EE8BF0A42CFCE435F0F8EF8AF0A42CF9
:1008A000E5F038FCE433CB8DF0A42CFCE5F03BF80C
:1008B000EE8AF0A42CFCE5F038F8E433CF89F0A4FC
:1008C0002CFCE5F038CF3400CE89F0A42FFFE5F002
:1008D0003EFEE433C98DF0A42EFEE5F039CD8AF05A
:1008E000A42FFFE5F03EFEE43DFD33D0E0FB5007D2
:1008F0000BBB000F020A5AEC2CFCEF33FFEE33FE69
:06090000ED33FD020A3296
:10090600020A5AEC5D046005E859047003020A50B5
:10091600120A1B580460F6EC4860F2EC7004FDFE07
:10092600FF22C860DB2481C85009C39860025006C4
:10093600020A579850CAF582E9294B4A7005AB82DC
:10094600020A4675F0007C1A7880C3EF9BEE9AED9A
:1009560099400DC3EF9BFFEE9AFEED99FDE842F03C
:10096600DC23ACF0D0E0FFD0E0FED0E0FDAB82208F
:10097600E7101BEB60BAEC2CFCEF33FFEE33FEED19
:1009860033FD020A32E803F830E705C0F075F000DF
:10099600EF2FFFEE33FEED33FD40B830E7C280AAFD
:1009A60075F020800E75F010800575F0087D007ECC
:1009B600007F003392D530D503120E48EC33401039
:1009C600EF33FFEE33FEED33FDEC33FCD5F0ED22D5
:0E09D600E5F0247EA2D513CC92E7CDCEFF2211
:1009E400EDD2E7CD33EC3392D524814006E4FFFE0B
:1009F400FDFC22FCE4CFCECDCC24E0501174FF806A
:100A0400EDC3CC13CCCD13CDCE13CECF13CF047006
:070A1400F030D5DE020E48B0
:100EAC00E54B2437F8E6054B2278343007027837C7
:100EBC00E475F001120E76020DF02000EB7F2ED2BD
:100ECC00008018EF540F2490D43440D4FF30040B1E
:100EDC00EF24BFB41A0050032461FFE54C600215E7
:100EEC004C054FE54F7002054E30070D7834E47514
:100EFC00F001120E76EF020E3602173F7403D20782
:100F0C008003E4C207F54B8B348A358936E4F54C03
:100F1C00F54EF54FE54C60077F20120EE780F57516
:100F2C004DFFC201C200C202C203C205C206C20802
:100F3C00120EB5FF700D3007057F00120EF8AF4F83
:100F4C00AE4E22B4255FC2D5C204120EB5FF24D01A
:100F5C00B40A00501A75F00A784C30D50508B6FF63
:100F6C000106C6A426F620D5047002D20380D9242B
:100F7C00CFB41A00EF5004C2E5D2040211E5D2013D
:100F8C0080C6D20080C0D20280BCD2D580BAD20535
:100F9C0080B47F20120EE72002077401B54C00408C
:100FAC00F1120EACFF120EE7020F20D208D206800F
:100FBC0095120EACFB120EACFA120EACF94A4B7039
:100FCC000679DC7A127BFF20022EE54C602A7E002B
:100FDC008E82758300120E0960060EEE654D70F060
:100FEC00C2D5EBC0E0EAC0E0E9C0E0EE121245D099
:100FFC00E0F9D0E0FAD0E0FB120DF0FF60AAEBC0F4
:10100C00E0EAC0E0E9C0E0120EE7D0E02401F9D03C
:10101C00E03400FAD0E0FBE54D0460DCD54DD9801E
:10102C0087D20280A212122860F7E54D70010412DB
:10103C000C01A94D600DE54D600914F54D1212CF50
:10104C00EF60F3EA30E702F404C3995077EAF42531
:10105C004D0430E701E404F54D800D12122860C1F7
:10106C00EA054D254D120C01EA784AF630E701E409
:10107C00254D04D54D0420050114121245E4C0E0A1
:10108C001212CF784AE6601320E70714F6120ECF3F
:10109C00802204F6D0E014C0E07F00120ECFE54DA4
:1010AC006007120EC6154D800B300503120EC6D00C
:1010BC00E0020F20D0E00480C512122860A0E54D9C
:1010CC0004120C01784AEAF6E54D20050260010491
:0510DC0024041212457E
:1010E10074FF04C0E01212CF120ECFE54D200502AD
:1010F1006003120EC6D0E0B54DE87F45120ED978D7
:101101004AE67F2B30E7047F2DF404C0E0120EE79E
:10111100D0E075F00A84C0F0120ED0D0E0120ED0EB
:10112100020F20791080027908C206C2088008D215
:10113100D5790A8004790AC2D5E54D047002F54DCE
:10114100E4FAFDFEFF120EACFC7B08200113120E27
:10115100ACFD7B1030000A120EACFE120EACFF7B10
:1011610020EC3382D592D55013C3E43000069FFFA3
:10117100E49EFEE42001039DFDE49CFCE4CBF8C267
:1011810001EC700CCFCECDCCE824F8F870F38017C9
:10119100C3EF33FFEE33FEED33FDEC33FCEB33FBFA
:1011A100994002FB0FD8E9EB300105F8D0E0C448C3
:1011B100B201C0E00AEC4D4E4F78207B0070C2EACC
:1011C100B54D0040BCC0E0121247D0F0D0E0200184
:1011D10004C4C0E0C4B201C0F0120ED0D0F0D5F00A
:1011E100EB020F20120E860FBD531124580F8E4CA7
:1011F1000F8A4211284F1130441130490FA3431176
:10120100365510674610C54510314712FC500F92F4
:101211002D0F962E0FB92B0F9A230FB72012E52A07
:101221000F524800000FB1E54DB4FF03754D061292
:101231000EACFC120EACFD120EACFE120EACFF7821
:1012410043020C30790AA2D5200314300509B910E4
:10125100020404B9080104A2D520060250010420A9
:1012610002689202B54C005034C0E07F203003196F
:101271007F30A20272067205500F12129EC202C284
:1012810006C205C2087F30800F300503E9C0E012B5
:101291000EE7300503D0E0F9D0E0B54CCC300517AE
:1012A1007F30B9100C120EE77F583004077F788029
:1012B10003B90803120EE73002057F2D020EE77F06
:1012C100202008F87F2B2006F322920280CF7F0096
:1012D100B4070050052443F8E6FF22286E756C6CB4
:1012E1002900D201120EAC3001F8C201784C30D580
:1012F1000108F6020F522D50434958120EAC240337
:10130100B405004001E49012F793120ED8743A121A
:0A1311000ED8D203754C040211241B
:101450008F378E368D358C34E4FFFE7D807C3FAB3C
:1014600037AA36A935A834120B777009AF37AE36D4
:10147000AD35AC3422AF37AE36AD35AC34120A657B
:10148000FBAF3BAE3AAD39AC38120A65FFBF01087D
:10149000E4FFFE7D807C3F22EF64046022EB640465
:1014A000601DBB0127E4FFFEFDFCAB3BAA3AA93956
:1014B000A838120B7760084006E4FFFEFDFC22749A
:1014C000FFF53BF53AF539F53802155EE4F53CF5E4
:1014D0003DFFFEFDFCAB37AA36A935A834120B77C9
:1014E000504BAF3BAE3AAD39AC381209E48E3C8F6D
:1014F0003DAC3CAD3DEC1209ABC8ECC8C9EDC9CA66
:10150000EECACBEFCBAF3BAE3AAD39AC38120A8264
:10151000E4FBFAF9F8120B7770A5AF37AE36AD35AC
:10152000AC34120BF08F378E368D358C34AF37AE2E
:1015300036AD35AC3412134FAB3BAA3AA939A838B3
:1015400012080012165A8F3B8E3A8D398C38E53DC1
:1015500030E00B120BF08F3B8E3A8D398C38AF3B5D
:07156000AE3AAD39AC3822B0
:100A1B00E9D2E7C933E833F892D5EDD2E7CD33EC21
:070A2B0033FC5002B2D5229A
:100A3200EC30E7100FBF000C0EBE00080DBD000425
:100A42000BEB6014A2D5EB13FCED92E7FD2274FFD1
:100A5200FCFDFEFF22E480F8A2D574FF13FC7D802A
:030A6200E480EF3E
:100A6500ED33EC33601004700FED547F70057402A4
:0A0A750092E0227404220422E4221D
:100A7F00020A50E86480F8E933E83360110460F04B
:100A8F00ED33EC337009E8FCE9FDEAFEEBFF2204DD
:100A9F0060DED3EB9FEA9EE99DE8C2E78CF0C2F7D8
:100AAF0095F0400CE8CCF8E9CDF9EACEFAEBCFFBA4
:100ABF00120A1B85D0F05804700320D5B3E80470D8
:100ACF00075002B2D5020A5A92D5EC0460F7E4CC73
:100ADF00C0E0C398F8603B94186008400DD0E0FB6D
:100AEF00020A32E4FBFAC9FC8028E830E406E4C9C4
:100AFF00FBE4CAFCE830E305E4C9CACBFCE85407C1
:100B0F006010F8C3E913F9EA13FAEB13FBEC13FCCB
:100B1F00D8F130F52FC3E49CFCEF9BFFEE9AFEED6E
:100B2F0099FDD0E0FBEF4E4D4C701222DB03020A11
:100B3F0057EC2CFCEF33FFEE33FEED33FDED30E7DA
:100B4F00EB020A32EF2BFFEE3AFEED39FDD0E0FB60
:100B5F0050130BBB0003020A5AED13FDEE13FEEF09
:080B6F0013FFEC13FC020A3233
:100B770074F8CC6480CCC86480C8F58204604FC325
:100B8700EB9FF5F0EA9E42F0E99D42F0E89C45F0C4
:100B9700603C501DE5825FFFE582D313CB5BCBF44E
:100BA7002B5582FB50280ABA002409B90020088077
:100BB7001DE5825BFBE582D313CF5FCFF4C3132F11
:100BC7005582FF50090EBE00050DBD00010CC3EB99
:100BD7009FF5F0EA9E42F0E99D42F0E89C45F060FF
:090BE70007CC4820E701B3EC2221
:100BF000ED33EC33600A047003BD8004ECB2E7FC13
:010C000022D1
:100C0100F920E72824F950037907E4F42402FB18BA
:100C1100DBFDE624FB5014E9600DE4F618E604F66A
:0F0C2100B40A08E4F6D9F57401F60A22C2D52206
:100C3000ED33EC3392D5FA602AB4FF33EDC2E77B93
:100C4000FF60067A0C7955E4227A0C795E20D5048F
:100C50007A0C7959224E614E002B494E46002D499F
:100C60004E4600E47A08F608DAFC7B00740722E8B6
:100C7000C0E0ECC0E0EDC0E0EEC0E0EFC0E0EA753F
:100C8000F010A4CAABF075F04DA42BFBE435F0FCDA
:100C9000EA2410FAEB34C5FBEC34D9FCEDC2E7FFD3
:100CA00075F056A4F42411C5F0F434C58FF0A42ACD
:100CB000E5F03BE43CF620E714120D63D0E0FFD0F2
:100CC000E0FED0E0FDD0E0FC1209098014F404122B
:100CD0000D63D0E0FFD0E0FED0E0FDD0E0FC1208D4
:100CE00000D0E0F8E6FAEDD2E7CD33EC332482FB16
:100CF000E4C3CF33CFCE33CECD33CD33DBF37B075D
:100D000075F00A846004F6081B0AE5F0F6088FF017
:100D1000740AA4FFACF08EF0740AA42CFEACF05060
:100D2000010C8DF0740AA42CFDE435F0F608DBDE2E
:030D300074072223
:1016220033DA929E35B16011377FE5FE3921848924
:101632003AAEC3FF3C1D955B3D6358473E75FDF0D6
:101642003F3172183F800000C2D5020A5A020A5086
:10165200BD80FA50F3020A57ED33EC330460F17B9C
:101662003B7AAA79B8783F120800ED33EC3392D571
:10167200247B5011A2D570DB500BED448024045022
:1016820004A2D580CEEFFBEEFAEDF9ECF81209E4F4
:10169200EFF582F404FC1209B0120A86C082901699
:1016A200227409120DB2ED33CC33D0F092D525F06D
:0A16B200A2D57001C313CC13FD2272
:10131B003E9248DA3ECCCCCD3F2AAAAB400000002F
:10132B003F8000003F9837F03FB504F33FD744FCB4
:10133B003E3172173EB172173F0515913EDE5BD9F8
:10134B00D2008002C200EDD2E7F8CD33EC3304704B
:10135B000BBD800592D5020A5A020A5040FBD314EA
:10136B0060F2F5F07C3FEE7A00C39496C8948B4004
:10137B00230AC89469C8941A401A0AC89468C89476
:10138B001F40110AC8945AC89425400805F07A00EA
:10139B00CDC2E7CDC0F08C3E8D3F8E408F41EA230E
:1013AB0023C0E0242BF582E43413F583120E66126E
:1013BB000A86ECC0E0EDC0E0EEC0E0EFC0E0120E3C
:1013CB0056A83EA93FAA40AB41120A82D0E0FBD0FF
:1013DB00E0FAD0E0F9D0E0B2E7F81209098C3E8DC3
:1013EB003F8E408F4190131B7403120DA3A83EA98F
:1013FB003FAA40AB41120800D0E0600F2437F582C2
:10140B00E43413F583120E66120A868C3E8D3F8EE2
:10141B00408F41D0E0C3947FFDE49400FC1209ABF4
:10142B007B187A727931783F120800A83EA93FAA3F
:10143B0040AB41120A8630000B7BD97A5B79DE78A0
:05144B003E1208002222
:100D33003F8000004120000042C80000447A0000C8
:100D4300461C400047C35000497424004B1896804A
:100D53004CBEBC205A0E1BCA6753C21C749DC5AE41
:100D6300FB60065407601C2323120D91EB5438607B
:100D730009120D7D120D8C120800ECF8EDF9EEFA54
:100D8300EFCB22EB120D8C80F1543803241C900D11
:100D930033FE93FC0EEE93FD0EEE930ECE93FF22E5
:100DA300C0E0EFFBEEFAEDF9ECF8120800D0E0F545
:100DB300F0EFFBEEFAEDF9ECF8120E56A3A3A3A3A2
:100DC300E8C0E0E9C0E0EAC0E0EBC0E0C0F0120830
:100DD30000120E66A3A3A3A3120A86D0F0D0E0FBF1
:0D0DE300D0E0FAD0E0F9D0E0F8D5F0D4224D
:100DF000BB010689828A83E0225002E722BBFE0201
:090E0000E32289828A83E4932233
:100E0900BB010CE58229F582E5833AF583E022509E
:100E190006E92582F8E622BBFE06E92582F8E222E8
:0D0E2900E58229F582E5833AF583E4932202
:100E3600BB010689828A83F0225002F722BBFE019B
:020E4600F32295
:0E0E4800C3E49FFFE49EFEE49DFDE49CFC22BB
:100E5600E493FC740193FD740293FE740393FF22E2
:100E6600E493F8740193F9740293FA740393FB22E2
:100E7600FAE6FB0808E6F925F0F618E6CA3AF6227D
:100E8600D083D082F8E4937012740193700DA3A3FB
:100E960093F8740193F5828883E47374029368600F
:060EA600EFA3A3A380DF0F
:10173F00EFB40A07740D12174A740A309811A8995A
:10174F00B8130CC2983098FDA899C298B811F6300A
:07175F0099FDC299F59922E2
:00000001FF
